{
  "_format": "hh-sol-artifact-1",
  "contractName": "BuyMeACoffee",
  "sourceName": "contracts/BuyMeACoffee.sol",
  "abi": [
    {
      "inputs": [],
      "stateMutability": "nonpayable",
      "type": "constructor"
    },
    {
      "anonymous": false,
      "inputs": [
        {
          "indexed": true,
          "internalType": "address",
          "name": "from",
          "type": "address"
        },
        {
          "indexed": false,
          "internalType": "uint256",
          "name": "timestamp",
          "type": "uint256"
        },
        {
          "indexed": false,
          "internalType": "string",
          "name": "name",
          "type": "string"
        },
        {
          "indexed": false,
          "internalType": "string",
          "name": "message",
          "type": "string"
        }
      ],
      "name": "NewMemo",
      "type": "event"
    },
    {
      "inputs": [
        {
          "internalType": "string",
          "name": "_name",
          "type": "string"
        },
        {
          "internalType": "string",
          "name": "_message",
          "type": "string"
        }
      ],
      "name": "buyCoffee",
      "outputs": [],
      "stateMutability": "payable",
      "type": "function"
    },
    {
      "inputs": [],
      "name": "changeAddress",
      "outputs": [],
      "stateMutability": "nonpayable",
      "type": "function"
    },
    {
      "inputs": [],
      "name": "getMemos",
      "outputs": [
        {
          "components": [
            {
              "internalType": "address",
              "name": "from",
              "type": "address"
            },
            {
              "internalType": "uint256",
              "name": "timestamp",
              "type": "uint256"
            },
            {
              "internalType": "string",
              "name": "name",
              "type": "string"
            },
            {
              "internalType": "string",
              "name": "message",
              "type": "string"
            }
          ],
          "internalType": "struct BuyMeACoffee.Memo[]",
          "name": "",
          "type": "tuple[]"
        }
      ],
      "stateMutability": "view",
      "type": "function"
    },
    {
      "inputs": [],
      "name": "withdrawTips",
      "outputs": [],
      "stateMutability": "nonpayable",
      "type": "function"
    }
  ],
  "bytecode": "0x608060405234801561001057600080fd5b5033600160006101000a81548173ffffffffffffffffffffffffffffffffffffffff021916908373ffffffffffffffffffffffffffffffffffffffff160217905550610d00806100616000396000f3fe60806040526004361061003f5760003560e01c806308cb3b5314610044578063204206e11461005b5780633aaa74b214610077578063865c51721461008e575b600080fd5b34801561005057600080fd5b506100596100b9565b005b61007560048036038101906100709190610643565b61012a565b005b34801561008357600080fd5b5061008c6102a4565b005b34801561009a57600080fd5b506100a3610306565b6040516100b091906108c0565b60405180910390f35b6000600160009054906101000a900473ffffffffffffffffffffffffffffffffffffffff1690508073ffffffffffffffffffffffffffffffffffffffff166108fc479081150290604051600060405180830381858888f19350505050158015610126573d6000803e3d6000fd5b5050565b6000341161016d576040517f08c379a00000000000000000000000000000000000000000000000000000000081526004016101649061093f565b60405180910390fd5b600060405180608001604052803373ffffffffffffffffffffffffffffffffffffffff16815260200142815260200184815260200183815250908060018154018082558091505060019003906000526020600020906004020160009091909190915060008201518160000160006101000a81548173ffffffffffffffffffffffffffffffffffffffff021916908373ffffffffffffffffffffffffffffffffffffffff1602179055506020820151816001015560408201518160020190816102359190610b6b565b50606082015181600301908161024b9190610b6b565b5050503373ffffffffffffffffffffffffffffffffffffffff167fc56140e05f516509ae28110e0f72e17558a7561630dad2647c3ae87d986e365c42848460405161029893929190610c85565b60405180910390a25050565b600160009054906101000a900473ffffffffffffffffffffffffffffffffffffffff1673ffffffffffffffffffffffffffffffffffffffff166108fc479081150290604051600060405180830381858888f1935050505061030457600080fd5b565b60606000805480602002602001604051908101604052809291908181526020016000905b828210156104e057838290600052602060002090600402016040518060800160405290816000820160009054906101000a900473ffffffffffffffffffffffffffffffffffffffff1673ffffffffffffffffffffffffffffffffffffffff1673ffffffffffffffffffffffffffffffffffffffff168152602001600182015481526020016002820180546103bd9061098e565b80601f01602080910402602001604051908101604052809291908181526020018280546103e99061098e565b80156104365780601f1061040b57610100808354040283529160200191610436565b820191906000526020600020905b81548152906001019060200180831161041957829003601f168201915b5050505050815260200160038201805461044f9061098e565b80601f016020809104026020016040519081016040528092919081815260200182805461047b9061098e565b80156104c85780601f1061049d576101008083540402835291602001916104c8565b820191906000526020600020905b8154815290600101906020018083116104ab57829003601f168201915b5050505050815250508152602001906001019061032a565b50505050905090565b6000604051905090565b600080fd5b600080fd5b600080fd5b600080fd5b6000601f19601f8301169050919050565b7f4e487b7100000000000000000000000000000000000000000000000000000000600052604160045260246000fd5b61055082610507565b810181811067ffffffffffffffff8211171561056f5761056e610518565b5b80604052505050565b60006105826104e9565b905061058e8282610547565b919050565b600067ffffffffffffffff8211156105ae576105ad610518565b5b6105b782610507565b9050602081019050919050565b82818337600083830152505050565b60006105e66105e184610593565b610578565b90508281526020810184848401111561060257610601610502565b5b61060d8482856105c4565b509392505050565b600082601f83011261062a576106296104fd565b5b813561063a8482602086016105d3565b91505092915050565b6000806040838503121561065a576106596104f3565b5b600083013567ffffffffffffffff811115610678576106776104f8565b5b61068485828601610615565b925050602083013567ffffffffffffffff8111156106a5576106a46104f8565b5b6106b185828601610615565b9150509250929050565b600081519050919050565b600082825260208201905092915050565b6000819050602082019050919050565b600073ffffffffffffffffffffffffffffffffffffffff82169050919050565b6000610712826106e7565b9050919050565b61072281610707565b82525050565b6000819050919050565b61073b81610728565b82525050565b600081519050919050565b600082825260208201905092915050565b60005b8381101561077b578082015181840152602081019050610760565b60008484015250505050565b600061079282610741565b61079c818561074c565b93506107ac81856020860161075d565b6107b581610507565b840191505092915050565b60006080830160008301516107d86000860182610719565b5060208301516107eb6020860182610732565b50604083015184820360408601526108038282610787565b9150506060830151848203606086015261081d8282610787565b9150508091505092915050565b600061083683836107c0565b905092915050565b6000602082019050919050565b6000610856826106bb565b61086081856106c6565b935083602082028501610872856106d7565b8060005b858110156108ae578484038952815161088f858261082a565b945061089a8361083e565b925060208a01995050600181019050610876565b50829750879550505050505092915050565b600060208201905081810360008301526108da818461084b565b905092915050565b600082825260208201905092915050565b7f63616e27742062757920636f6666656520776974682030206574680000000000600082015250565b6000610929601b836108e2565b9150610934826108f3565b602082019050919050565b600060208201905081810360008301526109588161091c565b9050919050565b7f4e487b7100000000000000000000000000000000000000000000000000000000600052602260045260246000fd5b600060028204905060018216806109a657607f821691505b6020821081036109b9576109b861095f565b5b50919050565b60008190508160005260206000209050919050565b60006020601f8301049050919050565b600082821b905092915050565b600060088302610a217fffffffffffffffffffffffffffffffffffffffffffffffffffffffffffffffff826109e4565b610a2b86836109e4565b95508019841693508086168417925050509392505050565b6000819050919050565b6000610a68610a63610a5e84610728565b610a43565b610728565b9050919050565b6000819050919050565b610a8283610a4d565b610a96610a8e82610a6f565b8484546109f1565b825550505050565b600090565b610aab610a9e565b610ab6818484610a79565b505050565b5b81811015610ada57610acf600082610aa3565b600181019050610abc565b5050565b601f821115610b1f57610af0816109bf565b610af9846109d4565b81016020851015610b08578190505b610b1c610b14856109d4565b830182610abb565b50505b505050565b600082821c905092915050565b6000610b4260001984600802610b24565b1980831691505092915050565b6000610b5b8383610b31565b9150826002028217905092915050565b610b7482610741565b67ffffffffffffffff811115610b8d57610b8c610518565b5b610b97825461098e565b610ba2828285610ade565b600060209050601f831160018114610bd55760008415610bc3578287015190505b610bcd8582610b4f565b865550610c35565b601f198416610be3866109bf565b60005b82811015610c0b57848901518255600182019150602085019450602081019050610be6565b86831015610c285784890151610c24601f891682610b31565b8355505b6001600288020188555050505b505050505050565b610c4681610728565b82525050565b6000610c5782610741565b610c6181856108e2565b9350610c7181856020860161075d565b610c7a81610507565b840191505092915050565b6000606082019050610c9a6000830186610c3d565b8181036020830152610cac8185610c4c565b90508181036040830152610cc08184610c4c565b905094935050505056fea264697066735822122032673227ffd6c2a40b95f79048b831340069dc95130b62bf7063c32930f105bf64736f6c63430008110033",
  "linkReferences": {},
  "deployedLinkReferences": {}
}